:020000040800F2
:1000000058060020010100083D2900088724000847
:10001000CD2800088F0C00089D2F0008000000006C
:10002000000000000000000000000000BD2A0008E1
:10003000A10C0008000000003F290008C12A0008A8
:100040001B0100081B0100081B0100081B01000820
:100050001B0100081B0100081B0100081B01000810
:100060001B0100081B0100081B0100081B01000800
:100070001B0100081B0100081B0100081B010008F0
:100080001B0100081B0100081B0100081B010008E0
:100090001B0100081B0100081B0100081B010008D0
:1000A0001B0100081B0100081B0100081B010008C0
:1000B0001B0100081B0100081B0100081B010008B0
:1000C0001B0100081B0100081B0100081B010008A0
:1000D0001B010008812F00081B0100081B010008FC
:1000E0001B0100081B0100081B010008DFF80CD0F1
:1000F00000F0C0FB004800475D3C000858060020A7
:100100000648804706480047FEE7FEE7FEE7FEE7B1
:10011000FEE7FEE7FEE7FEE7FEE7FEE76D2B0008E1
:10012000ED000008202A04DB203A21FA02F0002129
:10013000704721FA02F3D040C2F1200291400843F7
:1001400019467047D2B201E000F8012B491EFBD2DC
:1001500070470022F6E710B513460A4604461946D2
:10016000FFF7F0FF204610BD0FB400B58DB010A909
:1001700009900B9000914FF0FF300A9000200C90F6
:1001800005480690054807906A4609A80F9900F0AF
:100190009FF90DB05DF814FBED0400080B05000895
:1001A0002DE9FF5F1D464FF0FF3BD5E90146914623
:1001B0005F464FF00008A9697F1C01988847296AAB
:1001C000824688470028F6D1BAF1FF3F0CD024F4CC
:1001D000C064002E19DD600614D5BAF12B0F09D0CA
:1001E000BAF12D0F0ED103E0584604B0BDE8F09FE0
:1001F00044F48064A9697F1C01988847761E824672
:10020000002E02DDBAF1300F03D0B9F1000F26D075
:1002100032E0A969761E44F400747F1C0198884777
:100220008246002E05DDBAF1780F06D0BAF1580FDC
:1002300003D0B9F1000F10D01EE0B9F1000F02D0C9
:10024000B9F1100F18D1A969761E24F400747F1C2F
:10025000019888478246102002E0082000E00A202A
:10026000814609E008FB0908A969761E44F4007478
:100270007F1C019888478246002E05DD494650467E
:1002800000F011F90028EDDAE96901988847A00526
:1002900002D46FF00100A8E7E00725D1600613D56E
:1002A000600502D5C8F1000000E0404629680A1D3B
:1002B0002A600968220501D5087015E0220701D5DA
:1002C000088011E008600FE02868011D29600068BF
:1002D000210502D580F8008006E0210702D5A0F8AC
:1002E000008001E0C0F8008038467EE72DE9FE4F2F
:1002F00081EA030404F0004421F0004100944FF02F
:10030000000B23F0004350EA01045ED052EA0304DC
:100310005BD0C3F30A54C1F30A552C44A4F2F3345E
:100320000194A0FB0254C1F3130141F48011C3F303
:10033000130343F4801301FB024400FB034E840AC1
:10034000970A44EA815447EA8357A4FB0768029559
:100350008D0A05FB07854FEA932C04FB0C542705F7
:10036000029D4FEA065847EA1637B5EB08056EEBD3
:10037000070C870E920E47EA811742EA8312A7FB09
:100380000201B6EB0B0164EB00042B0D43EA0C33C6
:100390005E1844EB1C50DA465146E7FB0201C5F3F8
:1003A00013044FEA0B3343EA14534FEA0432019C1F
:1003B00043EA0603A4F10C040294009CCDE900B4C6
:1003C00000F0C3F803B0BDE8F08F00200146F9E764
:1003D00070B521F0004303430CD0C1F30A5500244B
:1003E000D5EB040564EB0403D617AD1AB34102DB69
:1003F0000020014670BD201841EB025170BD0EB5C2
:1004000040F2334102910021CDE900110A460B462A
:1004100000F09BF803B000BD30B50B46014600204C
:100420002022012409E021FA02F59D4205D303FAB6
:1004300002F5491B04FA02F52844151EA2F1010237
:10044000F1DC30BD2DE9F05F0546002092469B4669
:1004500088460646814640241BE0284641464746DA
:100460002246FFF75FFE53465A46C01A914110D309
:1004700011461846224600F00FFA2D1A67EB0108C4
:100480004F4622460120002100F006FA17EB000932
:100490004E41201EA4F10104DFDC484631462A46C5
:1004A0004346BDE8F09F3A2800D2303820F02002C1
:1004B000412A01D3A2F13700884201D34FF0FF3027
:1004C00070470000026811441378016018467047B5
:1004D000D160044951610449116200211161114642
:1004E00000F000BAC5040008DB080008426842B109
:1004F000016811F8013B23B1521EC0E900121846F1
:1005000070470121C160881E704742685AB1C368B4
:10051000016843B983688B4205D0491E521CC0E96B
:100520000012002070474FF0FF30704710B5141EC6
:1005300073F1000408DA401C41F1000192185B419C
:100540001A4301D120F0010010BD2DE9F04D924673
:100550009B4611B1B1FA81F202E0B0FA80F220328A
:10056000904600F099F904460F4640EA0A0041EA35
:100570000B0153465A46084313D0114653EA010073
:1005800019D0C8F140025046FFF7CCFD05460E4693
:1005900050465946424600F07FF9084305D00120F5
:1005A00004E020463946BDE8F08D0020054346EAC8
:1005B000E0762C4337430A986305E40AA0EB080071
:1005C0000022FD0A44EA47540A3002D500200146C1
:1005D000E9E7010510196941DDE90845001969419C
:1005E000BDE8F04DA2E72DE9FE4F804681EA030009
:1005F000C00F0C46009021F0004123F00045B8EBFD
:100600000200A94105D24046214690461C460B46B1
:10061000024623F00040104347D0270DC7F30A00DD
:10062000C3F30A510290401A019040286BDAC3F3D9
:10063000130040F4801B0098924620B10023D2EBB7
:10064000030A63EB0B0B01985946C0F14002504678
:1006500000F022F906460D4650465946019A00F030
:100660002AF910EB08006141002487EA115284EA5C
:10067000E7731A4340D0009A62B3019A012A4FEA05
:10068000075215DC001B61EB02014FF0004202EA49
:100690000752CDE90042001C41F5801132462B463D
:1006A000FFF753FF03B0BDE8F08F40462146F9E75E
:1006B000001B61EB0201001C41F5801300185B4137
:1006C0002018A2F5001747EB030140EAD570B619D0
:1006D0006D4111E06D084FEA360645EAC0754FEAF4
:1006E0000752001B61EB0201001C41F58011490813
:1006F0004FEA30000019514132462B4603B0BDE8A5
:10070000F04FFFF713BF0098012240000023D0EB09
:10071000020263EBE073009821464FEAE074B8EB05
:10072000000061EB0401E9E783F000435BE781F03F
:10073000004158E72DE9F04D81EA030404F0004B35
:1007400021F0004514464FF0000A23F0004150EA22
:10075000050220D054EA01021DD0C5F30A57024613
:10076000C5F31303C1F31300C1F30A5640F4801517
:1007700043F48013A7EB0608101BD64608F2FD3899
:1007800073EB050002D308F1010801E092185B4108
:10079000B8F1000F03DA00200146BDE8F08D00201B
:1007A0004FF48011064684460EE0171B73EB0507D5
:1007B00005D3121B63EB050306434CEA010C490801
:1007C0004FEA300092185B4150EA0107EDD152EA3E
:1007D000030012D082EA040083EA0501084305D031
:1007E000101BAB4106D20122002306E000224FF08D
:1007F000004302E06FF0010253101AEB06004CEBCD
:10080000085110EB0A0041EB0B01BDE8F04DFFF77A
:100810008DBEC1F30A52C1F3130140F2FF3341F41C
:1008200080119A4202DA00200146704740F23343B9
:100830009A42A2F2334202DC5242FFF773BC00F04C
:100840002BB8000030B5041E71F1000404DB4FF03A
:100850000044404264EB0101141E73F1000405DB07
:100860001C464FF00043524263EB0403994208BF19
:10087000904230BD064C074D06E0E06840F00103B1
:1008800094E8070098471034AC42F6D3FFF732FCE7
:100890004445000864450008202A04DB203A00FA99
:1008A00002F1002070479140C2F1200320FA03F3C7
:1008B000194390407047202A06DBCB17203A41FAB3
:1008C00002F043EAE07306E041FA02F3D040C2F1DD
:1008D00020029140084319467047C0B24FF4F051CE
:1008E00000F096B92DE9F34F8BB04FF0000801F1FD
:1008F0000C000C464FF0010B46460DF1080A019022
:100900006269012101989047051E2DD0252D2CD01C
:10091000216A8847C0B16269012101989047216A24
:1009200088470028F7D1411E62690198904700E08E
:10093000761CA1690B988847216A88470028F7D15F
:10094000E1690B988847DBE7A1690B988847074660
:10095000A84201D1761CD3E7E1690B9888477F1C38
:1009600002D1B8F1000F6FD046E1002762693D4621
:100970003946019890472A2804D1626901210198DB
:1009800090470125DFF88492626901210198904720
:10099000A0F130010A290AD24F45E5DC07EB8701B7
:1009A00000EB4107303FDFD445F01005ECE7E906E6
:1009B00001D46FF000476C280AD04C2814D0682866
:1009C00015D06A280DD074281CD07A281AD01DE0C2
:1009D00062690121019890476C2802D045F0040516
:1009E00014E045F002050DE045F020050AE06269DB
:1009F000012101989047682802D045F0080505E0DC
:100A000045F400656269012101989047C4E90157E6
:100A100065283DD019DC58287AD00CDC452837D021
:100A200004DC252826D0412831D131E046282FD0BA
:100A300047282CD12CE05B2877D0612828D0632868
:100A40007CD0642823D15AE0D0E06F2848D008DC5D
:100A500066281DD067281BD0692821D06E2816D1A2
:100A600027E0702845D0732868D0752847D07828AB
:100A70000DD14DE0A1690B988847054625283FF424
:100A800069AFE1690B9888476D1C3FF46AAFB3E02A
:100A900023466A466FF001000B99AFF300809EE099
:100AA00045F040006060A80723464FF0000236D4AE
:100AB0003EE0E8077FF447AF2068011D2160006831
:100AC000290501D506701BE7290701D5068017E720
:100AD000A90703D5F117C0E9006111E706600FE728
:100AE00045F040006060A80723464FF0080216D486
:100AF0001EE040F60E0125EA0100606016E045F0B8
:100B000040006060A80723464FF00A0207D40FE0B8
:100B100045F040006060A80708D5234610226FF01A
:100B200001000B99AFF3008059E007E02346102243
:100B30006FF001000B99FFF733FB50E04FF0000915
:100B40004F464B46632802D05B2806D040E0E806BB
:100B500001D40120A06001273AE0626901210198D7
:100B600090475E2805D14FF0010962694946019816
:100B70009047216939B900210A46534643F821209C
:100B8000491C0829FADBB0B3216969B9C11700EB28
:100B9000D16253110AEB830122F01F02821A012055
:100BA0000B68904003430B606269012101989047F4
:100BB0005D28E8D1B9F1000F09D00020514651F865
:100BC0002020D24341F82020401C0828F7DB02AB4C
:100BD000224600976FF001000B99AFF300800028C8
:100BE0000CDA401C08D1BBF1000F05D04FF0FF30EC
:100BF0000DB0BDE8F08FFFE74046F9E7E90701D106
:100C000008F1010806444FF0000B79E6CCCCCC0C7F
:100C10007F2801D9002208E0064A02EB5002C007F3
:100C2000127800D1120902F00F0201209040084012
:100C3000704700000245000870B5044600688168EE
:100C4000C943C90717D1816821F00101816000F013
:100C500055FB05460AE000BF00F050FB401B022890
:100C600004D920688068C043C00706D02068806827
:100C7000C043C007F0D0002070BDA06A40F0100053
:100C8000A062E06A40F00100E062012070BDFEE772
:100C9000024A136818641068C16370473C01002061
:100CA000704770B505462944090BA1EB103086B298
:100CB000002406E0284600F007F8641CA4B205F6FC
:100CC000FF75B442F6D970BD10B5044602F08DF937
:100CD00002F084F902F06CF9202002F0F9FFC4F36D
:100CE000074002F0F5FFC4F3072002F0F1FFE0B285
:100CF00002F0EEFF02F054F9BDE8104002F06EB9C8
:100D0000F8B50024009490F824202546012A12D03A
:100D1000012280F824204A681F23072A0DD2066882
:100D2000776B521E02EB820293409F430B68934005
:100D30001F43776319E00220F8BD06680D2A0AD226
:100D4000376BD21F02EB820293409F430B689340A4
:100D50001F43376309E0F76A0D3A02EB82029340C2
:100D60009F430B6893401F43F7620A680723066896
:100D70000A2A0AD3F7680A3A02EB420293409F43D9
:100D80008B6893401F43F76008E0376902EB42022B
:100D900093409F438B6893401F4337610A68102A32
:100DA00001D0112A20D1124B02689A4217D19368C0
:100DB0001B0219D4936843F4000393600968102957
:100DC00012D10C490C4A0968B1FBF2F101EB810127
:100DD000490000E0491E00910029FBD104E0816A2E
:100DE00041F020018162012480F824502046F8BDA2
:100DF000002401400C00002040420F002DE9F0418A
:100E00004FF0000704003D467ED0A06A002628B9B6
:100E1000E66284F82460204600F07EF82046FFF762
:100E20000BFFA16AC90600D420B1A06A40F01000EF
:100E3000A06269E0A16A21F4885141F00201A16237
:100E40006268E169237B0A4347EA43010A43A168D8
:100E50004FF48077B94209D0012907D05FF0000133
:100E600094F814C0BCF1010F02D00AE03946F7E74C
:100E7000F3B1A36A43F02003A362E36A43F00103E2
:100E8000E3622368D3F804C02CF4694C4CEA010CEB
:100E9000C3F804C021688B68DFF870C003EA0C0354
:100EA00013438B60A168B9420BD0012909D00CE033
:100EB000DFF85CC0A3690CEB43330B4343F40061E0
:100EC000DFE7218A0D05A5F580152168CB6A23F49B
:100ED00070032B43CB62216889680E4B1940914205
:100EE00008D1E662A16A21F0020141F00101A1628C
:100EF000BDE8F081A06A20F0020040F01000A0627E
:100F0000E06A40F00100E0620120F1E7FDF7E1FF57
:100F100000E0FFFFFE0E1FFF00B585B0002100912D
:100F200001910291039100680E49884218D10E4840
:100F3000816941F400718161816901F4007104915A
:100F4000816941F0040181618069694600F0040013
:100F500004900120009003200190044800F0D8F88C
:100F600005B000BD0024014000100240000801400F
:100F700070B5040003D094F8200010B104E0012003
:100F800070BD204600F082F82068016841F0010140
:100F9000016000F0B3F90546052604E000F0AEF963
:100FA000401B0A2811D820684068C007F6D0206886
:100FB000016821F00201016000F0A0F905460BE094
:100FC00000F09CF9401B0A2806D9606A40F4003002
:100FD000606284F82060D2E7206840688007EFD420
:100FE000207E0128206801683DD021F08001016049
:100FF000607E01282068016838D021F0400101603E
:10100000A07E01282068016833D021F02001016012
:10101000E07E0128206801682ED041F010010160B7
:10102000207F01282068016829D021F00801016093
:10103000607F01282068016824D021F0040101604C
:10104000D4E902010843D4E904121143084361685A
:10105000491E08432168C86100206062012084F8AD
:101060002000002070BD41F08001C0E741F0400148
:10107000C5E741F02001CAE721F01001CFE741F0B8
:101080000801D4E741F00401D9E7000010B586B0AB
:101090000021009101910291039100681849884252
:1010A0002BD11848C16941F00071C161C16901F0DB
:1010B00000710491816941F0080181618069124CDD
:1010C00000F0080004904FF48070009069462046BC
:1010D00000F01EF86015009002200190032003909C
:1010E0006946204600F014F80848416821F4C041E0
:1010F00041F0E06141F48041416006B010BD000064
:101100000064004000100240000C0140000001405B
:101110002DE9F84FDFF8B891002409F1040A0AF12B
:10112000040B23460F270BF1040EC9E00125A5404F
:101130002A40AA427DD1674ED1F804C0ACEB060824
:10114000B44532D014DCBCF1030F3AD009DCBCF159
:10115000000F2AD0BCF1010F1CD0BCF1020F31D11D
:101160001DE0BCF1110F17D0BCF1120F2AD119E00C
:10117000B8F5881F19D006DCB8F5803F15D0B8F552
:10118000801F1FD111E0B8F5001F0ED0B8F5041F65
:1011900018D10AE0CB6815E0CB681B1D12E0CB68C4
:1011A00008330FE0CB680C330CE08B682BB1012BBC
:1011B0004FF0080303D0456104E0042302E0056119
:1011C00000E00023FF2A01D8064601E000F10406F2
:1011D0004FEA840501D9A5F12005D6F8008007FA69
:1011E00005FC28EA0C0803FA05F548EA0508C6F8E4
:1011F00000804D68ED0062D5374DAE6946F00106BE
:10120000AE61AD6924F0030605F001050095334D8C
:1012100006EB050CDCF80850A607360F07FA06F8AF
:1012200025EA0805DFF8B880404503D14FF00008F3
:1012300017E044E0DFF8AC80404502D14FF00108F0
:101240000FE0DFF8A480404502D14FF0020808E02B
:10125000DFF89880404502D14FF0030801E04FF0DD
:10126000040808FA06F848EA0508CCF808804D6832
:10127000D9F80060ED034D4601D5164300E09643D2
:101280002E604D68DAF80060AD03554601D516436F
:1012900000E096432E604D68DBF80060ED025D468D
:1012A00001D5164300E096432E604D68DEF80060DD
:1012B000AD02754601D5164300E096432E60641CCE
:1012C0000D682A46E5407FF431AFBDE8F88F000095
:1012D0000004014000001110001002400000014015
:1012E00000080140000C01400010014000140140C2
:1012F0000AB1016170470904FBE7000001488068FA
:101300007047000000000020024881680278114404
:101310008160704700000020074810B5016841F067
:1013200010010160032000F075F80F2000F006F8AE
:1013300000F024F8002010BD0020024070B50D4DD3
:1013400004464FF47A712878B1FBF0F00A49096835
:10135000B1FBF0F000F063FE48B9102C07D2002278
:101360002146501E00F036F800206C6070BD012050
:1013700070BD0000000000200C0000200C4808B5E3
:10138000816941F001018161816901F001010091F0
:10139000C16941F08051C161C06900F08050009086
:1013A0000448416821F0E06141F00071416008BDEE
:1013B0000010024000000140002809DB00F01F027D
:1013C000012191404009800000F1E020C0F80011A7
:1013D00070470000F0B40E4B1B680C46C3F30223A9
:1013E000C3F10705042D00D90425191D072901D2D1
:1013F000002300E0DB1E012606FA05F1491E21400C
:1014000099409E40761E16403143F0BC01F0C4BEA8
:101410000CED00E0064900F0070208684FF6FF03F4
:10142000184040EA0220034A104308607047000059
:101430000CED00E00000FA052DE9F84305460078C0
:10144000354CC00754D0E0690026C00008D4E069DC
:1014500040F08050E061E069012600F0805000908B
:101460002E480168C90512D40168804641F4807194
:101470000160FFF743FF074605E000BFFFF73EFFAF
:10148000C01B642823D8D8F80000C005F6D5206A10
:1014900010F4407021D0A98801F4407181421CD021
:1014A000206A1F49012220F440700A6000220A606D
:1014B0002062C00711D0FFF721FF074641F28838AC
:1014C00008E000BFFFF71AFFC11B414502D9032006
:1014D000BDE8F883206A8007F4D5206A696820F4A3
:1014E0004070084320621EB1E06920F08050E06146
:1014F0002878800705D56068A96820F44040084333
:1015000060602878C00605D56068E96820F480002E
:10151000084360600020DBE70010024000700040DC
:10152000400442422DE9F0410F46050050D03E4EA6
:10153000306800F00700B84209D2306820F0070098
:1015400038433060306800F00700B84240D1286866
:10155000364C810712D5400703D5606840F4E0603F
:1015600060602878000703D5606840F460506060D0
:101570006068A96820F0F000084360602878C00720
:1015800017D06868012826D02168022826D089074C
:1015900000291DDA616821F003010143C4F8041039
:1015A000FFF7ACFE6068696800F00C00B0EB810FDB
:1015B000F6D1306800F00700B84211D9306820F049
:1015C000070038433060306800F00700B84207D0A9
:1015D0000120BDE8F08121688903D9E78901D7E7B7
:1015E0002878400705D56068E96820F4E060084382
:1015F00060602878000706D56068296920F460508B
:1016000040EAC100606000F039F86168084AC1F33F
:101610000311515CC8400749086007480068FFF79C
:101620008DFE0020D5E7000000200240001002409F
:10163000E83C00080C000020040000200448054994
:1016400000684968044AC1F30221515CC8407047F0
:101650000C00002000100240F83C00080448054936
:1016600000684968044AC1F3C221515CC840704710
:101670000C00002000100240F83C000813A185B0C7
:101680000FC98DE80F0015A0154A00680490516835
:1016900001F00C00042804D0082804D0114805B03B
:1016A00070471148FBE7C1F38343C9031DF80300EA
:1016B00009D5516804AAC1F34041515C0A4A50431C
:1016C000B0FBF1F0EBE709494843E8E70203040502
:1016D000060708090A0B0C0D0E0F1010010200007E
:1016E0000010024000127A00001BB70000093D0004
:1016F0002DE9F84F040071D02078BA4DC00739D0D9
:101700006868C0F38100012807D06868C0F38100D1
:10171000022809D16868C00306D52868800329D546
:1017200060680028E7D025E06068B0F5803F0BD006
:1017300010B1B0F5A02F13D0286820F480302860B5
:10174000286820F4802002E0286840F48030286077
:10175000606850B1FFF7D2FD28688003FAD509E030
:10176000286840F480202860EEE7FFF7C7FD28686E
:101770008003FAD420789C4E80074FF001094FF087
:1017800000083BD5686810F00C0F07D06868C0F3FC
:101790008100022809D16868C00306D42868800740
:1017A00014D52069012819D110E02069B8B1C6F814
:1017B0000090FFF7A3FD074605E000BFFFF79EFD81
:1017C000C01B02287ED828688007F7D52868616981
:1017D00020F0F80040EAC10028600FE0FDE0C6F804
:1017E0000080FFF78BFD074605E000BFFFF786FD91
:1017F000C01B022866D828688007F7D42078000725
:101800002CD57A48A169D1B1C0F80090FFF776FDD8
:10181000074604E0FFF772FDC01B022852D8686A31
:101820008007F7D572484FF4FA510068B0FBF1F029
:10183000009000BF0098411E0091FAD20EE0C0F85F
:101840000080FFF75BFD074605E000BFFFF756FD90
:10185000C01B022836D8686A8007F7D42078400772
:1018600062D5E8690027C00008D4E86940F08050DC
:10187000E861E869012700F0805000905D48016848
:10188000C90513D40168834641F480710160FFF7F4
:1018900035FD824606E000BFFFF730FDA0EB0A00F1
:1018A00064280FD8DBF80000C005F5D5E0680128F2
:1018B0000CD008B1052815D0286A20F00100286254
:1018C000286A00E075E020F0040002E0286A40F099
:1018D00001002862E06841F2883B98B1FFF70EFDF5
:1018E00082460BE0286A40F004002862EEE700BF61
:1018F000FFF704FDA0EB0A0159455AD8286A800772
:10190000F6D50CE0FFF7FAFC824605E0FFF7F6FC9F
:10191000A0EB0A0159454CD8286A8007F6D41FB1BC
:10192000E86920F08050E861E06988B36968C1F334
:101930008101022944D00228C6F8608003D0FFF755
:10194000DDFC044638E0FFF7D9FC074605E000BFA0
:10195000FFF7D4FCC01B02282BD828688001F7D4DD
:10196000206AB0F5803F05D16868A16820F4003096
:1019700008436860D4E908010843696821F47411D8
:1019800008436860C6F86090FFF7B8FC044606E0BC
:1019900025E000BFFFF7B2FC001B022809D8286829
:1019A0008001F7D51BE000BFFFF7A8FC001B022851
:1019B00002D90320BDE8F88F28688001F4D40EE036
:1019C0000128F7D06868226A00F48031914204D17E
:1019D000616A00F47010884201D00120EAE700201B
:1019E000E8E700000010024000004242800442424A
:1019F0000C0000200070004070B5040009D0606A3F
:101A0000002540B125616561A56294F8510040B19F
:101A10000CE0012070BD6068B0F5827FF4D0E56114
:101A2000F2E784F85050204600F040F8022084F895
:101A300051002068016821F040010160A0882189DF
:101A400000F4827001F404410843A18901F40061AB
:101A50000843217C01F002010843217D01F00101CE
:101A60000843218B01F400710843217F01F0380104
:101A7000084394F8201001F080010843218D01F4FF
:101A80000051084321680860A069042101EA104060
:101A9000216848602068C16921F40061C161656501
:101AA000012084F85100002070BD000070B586B0A0
:101AB000002400940194029403942B4E03682B4954
:101AC000022003222A4DB34228D18B6943F480536C
:101AD0008B618B6903F4805304938B6943F0080393
:101AE0008B618969039201F0080104912821CDE9F5
:101AF000001069462846FFF70BFB1020CDE90004D3
:101B0000694628460294FFF703FB1A48416841F0F2
:101B1000E06141F00101416006B070BD164EB34274
:101B2000FAD1CB6943F48043CB61CB6903F48043A2
:101B300004938B6943F008038B618969039201F078
:101B4000080104914FF42041CDE900106946284670
:101B5000FFF7DEFA3014CDE9000469462846029406
:101B6000FFF7D6FAD8E7000000300140001002402D
:101B7000000C014000000140003800402DE9F84F02
:101B8000044640680025984616460F464FF0040B61
:101B9000B0F5827F01D1A06888B194F85000012887
:101BA00018D0012084F85000FFF7A8FB814694F874
:101BB00051004FF0000A01280ED0022582E084F87F
:101BC00051B013460A462046CDF8008000F036F9A1
:101BD000BDE8F88F0220FBE7002F72D0002E70D0F6
:101BE00084F851B0C4F854A0A763A687E687C4F868
:101BF00030A0A4F834A0A4F836A0C4F840A0C4F8DB
:101C000044A0A068B0F5004F09D12068016821F018
:101C1000400101602068016821F480410160206872
:101C20000168490603D4016841F040010160E068A1
:101C3000D8B139E020688168C90709D0007BA16B61
:101C40000870A06B401CA063E08F401EE0870CE092
:101C5000FFF754FBA0EB0901414503D3B8F1FF3F67
:101C600003D036E0B8F1000F33D0E08F0028E1D187
:101C70001DE020688168C90709D0C068A16B088091
:101C8000A06B801CA063E08F401EE0870CE0FFF794
:101C900035FBA0EB0901414503D3B8F1FF3F03D069
:101CA00017E0B8F1000F14D0E08F0028E1D14A46C8
:101CB0004146204600F067FE08B120206065606D57
:101CC00000B10125012084F8510084F850A0284675
:101CD0007EE70325F6E72DE9F84F044690F850001B
:101CE00000271D461646894601280DD04FF0010BEE
:101CF00084F850B0FFF702FB804694F85100BA46D2
:101D0000012804D0022793E00220BDE8F88FB9F142
:101D1000000F73D0002E71D0032084F85100C4F856
:101D200054A0C4F83090A686E686C4F838A0A4F87B
:101D30003CA0A4F83EA0C4F844A0C4F840A0A06809
:101D4000B0F5004F09D12068016821F04001016021
:101D50002068016841F480410160206801684906FB
:101D600003D4016841F040010160E068B0F5006F04
:101D7000606803D030B3012E24D041E008B1012EB9
:101D80001CD1206B21680088C86006E0206881684B
:101D9000890709D5216B0988C160206B801C2063ED
:101DA000E08E401EE08609E0FFF7A8FAA0EB0800ED
:101DB000A84202D3681C01D031E07DB3E08E002838
:101DC000E4D120E0206B21680078087306E02068E9
:101DD0008168890709D5216B09780173206B401C44
:101DE0002063E08E401EE0860AE0FFF787FAA0EB52
:101DF0000800A84203D3681C02D010E017E06DB1C0
:101E0000E08E0028E3D142462946204600F0E9FD55
:101E100008B120206065A06818B106E0FFE703273D
:101E200006E02068C16880680090606D00B10127FD
:101E300084F851B084F850A0384666E72DE9F84F91
:101E4000044690F8500000270A9E1D4692468B4695
:101E50004FF0010901280ED0012084F85000FFF74F
:101E60004DFA804694F85100616801280CD0B1F514
:101E7000827F07D102E00220BDE8F88FA16809B98E
:101E8000042801D00227C2E0BBF1000F27D0BAF12D
:101E9000000F24D01DB394F85100042802D005206F
:101EA00084F8510000206065C4F838A0E587A58754
:101EB000C4F830B0E586A5862064606420680168B7
:101EC000490603D4016841F040010160E068B0F5C3
:101ED000006F606805D0E8B3012D46D07FE0012790
:101EE00095E008B1012D39D1206B21680088C860C8
:101EF000206B801C2063E08E401EE0862EE0206870
:101F0000816889070FD5E18E69B1B9F1010F0AD156
:101F1000216B0988C160206B801C2063E08E401E0D
:101F2000E0864FF0000920688168C9070CD0E18F76
:101F300051B1C068A16B0880A06B801CA063E08FCA
:101F4000401EE0874FF00109FFF7D8F9A0EB080029
:101F5000B04200E009E001D3701C50D1E08E0028AF
:101F6000CDD1E08F0028CAD13FE0206B21680078F6
:101F70000873206B401C2063E08E401EE0862EE03C
:101F80002068816889070FD5E18E69B1B9F1010F29
:101F90000AD1216B09780173206B401C2063E08E0D
:101FA000401EE0864FF0000920688168C9070CD008
:101FB000E18F51B1C068A16B0870A06B401CA06399
:101FC000E08F401EE0874FF00109FFF797F9A0EB83
:101FD0000800B04202D3701C01D010E07EB1E08E48
:101FE0000028CDD1E08F0028CAD142463146204694
:101FF00000F0F7FC28B101272020606507E00327E7
:1020000005E0A06818B92068C168806800900120C8
:1020100084F85100002084F8500038462CE710B5B1
:10202000401EB0F1807F01D3012010BD4FF0E024AD
:1020300060610F21601701F0AFF80020A061072058
:102040002061002010BD000070B590F83C20012AEE
:1020500026D0012480F83C40022280F83D2003680D
:102060005A689D6822F070060A6832435A600D4B28
:1020700002689A4208D0B2F1804F05D00A4B9A42CA
:1020800002D00A4B9A4204D1496825F080031943D3
:10209000916080F83D40002180F83C10084670BDFA
:1020A000022070BD002C01400004004000080040E8
:1020B00000B585B000210091019102910391006863
:1020C000B0F1804F1BD10F48816941F00801816157
:1020D0008069694600F0080004904FF44060009069
:1020E0000220019003900848FFF712F80748416862
:1020F00021F4407141F0E06141F40071416005B0AC
:1021000000BD000000100240000C01400000014032
:1021100070B5044690F83C000D4601280AD0012015
:1021200084F83C0042B1042A18D0082A2AD00C2A8C
:102130004DD139E0022070BD206800F0F1FD20682B
:10214000816941F0080181612068816921F0040101
:102150008161206881692A69114311E0206800F0DB
:1021600007FE2068816941F400618161206881690E
:1021700021F480618161206881692A6941EA022134
:10218000816124E0206800F01FFE2068C16941F0F1
:102190000801C1612068C16921F00401C1612068A2
:1021A000C1692A69114311E0206800F039FE2068F6
:1021B000C16941F40061C1612068C16921F4806195
:1021C000C1612068C1692A6941EA0221C161002018
:1021D00084F83C0070BD10B5040003D094F83D00B5
:1021E00010B107E0012010BD002084F83C0020461B
:1021F00000F01EF8022084F83D00211D206800F048
:102200004BFD012084F8460084F83E0084F83F002E
:1022100084F8400084F8410084F8420084F84300C8
:1022200084F8440084F8450084F83D00002010BD87
:1022300008B50068B0F1804F08D10548C16941F088
:102240000101C161C06900F00100009008BD0000FB
:102250000010024010B50446022249B104290ED0F4
:10226000082913D094F84100012816D0012010BD90
:1022700094F83E000128F9D184F83E200FE094F84C
:102280003F000128F2D184F83F2008E094F8400094
:102290000128EBD184F8402001E084F8412001229C
:1022A000206800F02FFD0F492068884203D1426C5E
:1022B00042F4004242642068884208D0B0F1804F66
:1022C00005D00949884202D00849884204D1816872
:1022D00001F00701062903D0016841F00101016006
:1022E000002010BD002C0140000400400008004008
:1022F00070B5040004D094F83D00002510B106E04C
:10230000012070BD84F83C50204600F023F82420C2
:1023100084F83D002068C16821F40051C160204666
:1023200000F0A0FD2068016921F49041016120685E
:10233000416921F02A0141612068C16841F40051DE
:10234000C1602564202084F83D0084F83E00002010
:1023500070BD000030B585B0002400940194029453
:1023600003940068174988422AD11748816941F4CB
:1023700080418161816901F480410491816941F06A
:10238000080181618069114D00F00800049040202F
:102390000090022001900320039069462846FEF732
:1023A000B7FE8020CDE90004694628460294FEF776
:1023B000AFFE0748416841F0E06141F0040141602F
:1023C00005B030BD0038014000100240000C014053
:1023D000000001402DE9F843044690F83D001F46F7
:1023E00016460D4620284CD1C5B1BEB194F83C002C
:1023F000012846D0012084F83C004FF00008C4F8C2
:102400004080212084F83D00FEF778FFA6848146B5
:10241000E684A068B0F5805F03D004E00120BDE849
:10242000F883206928B12E465FF0000584F83C80CF
:102430000EE00026FAE78021204600F06FFDA0B9EB
:10244000AEB116F8010B21684860E08C401EE084B4
:10245000E08C4B464FF0000200970028EBD14FF084
:102460004001204600F05AFD30B10320D7E735F88F
:10247000020BC0F30800E6E7202084F83D000020AE
:10248000CDE70220CBE7FEE70549012008700548AB
:1024900044F620610068B0FBF1F0FFF7C0BD00001A
:1024A0002D0000200C0000202DE9F04704462CA050
:1024B00086B0006803902BA000250068DFF8A89084
:1024C0002E464FF400486F1E4FF0010A0490002280
:1024D00041464846FEF70CFF022301AA03A9234800
:1024E0000097FFF7ABFC012241464846FEF700FF8C
:1024F000002241464846FEF7FBFE022302AA04A939
:102500001A480097FFF79AFC012241464846FEF719
:10251000EFFE9DF809009DF80510524640EA0121A2
:102520002180002002FA00F3194201D06D1CEDB2A7
:10253000401CC0B21028F5D3E80708D00020761C54
:10254000F6B26071032EC2D306B0BDE8F08784F8FE
:1025500005A0C1F38D006080C1F340002071F3E756
:102560008300000084000000000801408C0000206F
:102570001CB56846FFF798FF9DF80400012811D0AC
:10258000BDF80200FDF73BFF6FF00D02FDF720FFE5
:102590000022064BFDF7AAFE02460B4604A000F0FF
:1025A000EBFD1CBD06A000F0E7FD1CBD00807640E1
:1025B0000D0A616E67656C3A20252E32660D0A00A1
:1025C0000D0A4E4F206D61676E657420686173203F
:1025D0006465746563746564210D0A003EB500246A
:1025E00010480094019402940D49846001600473C2
:1025F0000475012505614FF460214460C161FEF757
:10260000FDFB08B172B6FEE7CDE900456946054815
:102610000294FEF775FB002801D072B6FEE73EBDBE
:1026200000240140340000200C4810B50A49016024
:102630001021416000218160C1600161416101762A
:1026400041768176C17601774177FEF791FC0028CB
:1026500001D072B6FEE710BD0064004064000020A7
:102660002DE9F04786B0002440480094019402947C
:102670000394816941F010018161816901F01001C9
:102680000491816941F020018161816901F020019B
:102690000491816941F004018161816901F00401C3
:1026A0000491816941F0080181618069DFF8C0808F
:1026B00000F008004FF4C04504900022294640462F
:1026C000FEF716FEDFF8ACA000224FF400415046A2
:1026D000FEF70EFE002204215046FEF709FE0022FE
:1026E00008215046FEF704FE002210215046FEF756
:1026F000FFFD002220215046FEF7FAFDDFF878901A
:102700004FF48057002239464846FEF7F1FD012676
:10271000CDE90056032569464046CDE90245FEF75E
:10272000F7FC3C20CDE9000669465046CDE902455C
:10273000FEF7EEFCCDE90054694648460294FEF7E8
:10274000E7FCCDE9007669464846CDE90245FEF74B
:10275000DFFC4FF40140CDE9000669465046CDE963
:102760000245FEF7D5FC06B0BDE8F0870010024038
:102770000010014000080140000C01400F4810B556
:102780000D4901604FF48271416000210222816095
:10279000C0E9031201224261520282610822C0E9AB
:1027A0000721416281620A21C162FFF725F90028F1
:1027B00001D072B6FEE710BD003001408C00002051
:1027C0000E4810B50C4901604FF482714160002140
:1027D0008160C1604FF400720161C0E90512C161FE
:1027E0000162416281620A21C162FFF705F9002896
:1027F00001D072B6FEE710BD00380040E4000020B2
:1028000010B58AB0002407941C2168460894FDF78F
:10281000A0FC19484FF08041C0E900144FF6FF7149
:10282000C0E9024104618461FFF7D5FC08B172B6CA
:10283000FEE7079407A910480894FFF705FC08B1C4
:1028400072B6FEE76020CDE90004029408226946D2
:1028500009480494FFF75CFC08B172B6FEE70C224D
:1028600069460548FFF754FC08B172B6FEE7024816
:10287000FFF71EFC0AB010BD3C01002010B5124C41
:1028800010480C2120604FF4E13060600020A0600F
:10289000E060C4E90401A061E0612046FFF728FD83
:1028A00008B172B6FEE72068C16841F02001C1603E
:1028B000012200212520FEF78DFDBDE810402520D6
:1028C000FEF77ABD0038014084010020FEE7704722
:1028D00000F0D4B970B50AA000F04EFC00244FF40B
:1028E000FA754FF448462946204600F041F9641C29
:1028F000B442F8D3BDE8704009A000F03DBC000030
:102900000D0A6D6F746F7220726F7461746573203D
:102910006F6E63652073746172740D0A00000000AD
:102920000D0A6D6F746F7220726F7461746573201D
:102930006F6E6365206F7665720D0A00FEE7704763
:102940002DE9F04116460D460746002400F030FB05
:10295000032001F0BDF9C5F3074001F0B9F9C5F353
:10296000072001F0B5F9E8B201F0B2F905E000BFC7
:1029700001F0A0F93855641CA4B2B442F8D3BDE804
:10298000F04100F00DBBF8B5044640684FF4827387
:10299000984217D1A0684FF48065B0F5004F01D080
:1029A000A8420FD12068066826F0400606606068DD
:1029B000984207D1A068A84204D100920B46002299
:1029C000012103E000920B4600228021204600F006
:1029D00019F8002804D0606D40F0200060650320E5
:1029E000F8BD38B50B46009204460022802100F065
:1029F00009F8002804D0606D40F0200060650320D5
:102A000038BD00002DE9F8431E469146884604462D
:102A1000089DFEF773FC401B351AFEF76FFC074656
:102A200025480068C0F3CB30684338E0701C37D0CD
:102A3000FEF764FCC01BA84203D215B1009860B336
:102A40002CE02068416821F0E00141606068B0F549
:102A5000827F0BD1A068B0F5004F02D0B0F5806F37
:102A600004D12068016821F040010160A06AB0F53E
:102A7000005F09D12068016821F4005101602068DD
:102A8000016841F400510160012084F851000020E8
:102A900084F850000320BDE8F8830025401E009014
:102AA0002068816838EA010004D000214945BDD181
:102AB0000020F0E70121F9E70C000020704700003A
:102AC00010B50A4C207848B1FFF701FF6078401C30
:102AD000C0B26070142803D300206070FEF714FCAD
:102AE00003480168491C016010BD00002D00002052
:102AF0004002002030B593B028216846FDF729FB3D
:102B000014210AA8FDF725FB002501200F9510953B
:102B10001195010412958DE8230004904FF4C01024
:102B2000CDE90810022407946846FEF7E1FD08B1DC
:102B300072B6FEE70AA90F2081E831004FF48060E9
:102B4000CDE90D0504210AA8FEF7ECFC08B172B628
:102B5000FEE74FF4004011900F940FA8FEF76CFCB5
:102B6000002801D072B6FEE713B030BD70470000F8
:102B700070B53E4CC0F3090202F58070A51F3C4BB6
:102B80002280C0F30900288033F91000688033F9EF
:102B900012206280002900DA4942364B5943C1F3C2
:102BA0000F31002800DA40424843C0F30F30A880BC
:102BB000002A00DA52424A43C2F30F31A180FEF7E5
:102BC00067F8B5F902002C4E002809DD012220210A
:102BD0003046FEF78DFB002210213046FEF788FBC1
:102BE000B5F90200002809DA002220213046FEF75C
:102BF0007FFB012210213046FEF77AFB688848B936
:102C0000012220213046FEF773FB012210213046BD
:102C1000FEF76EFBB4F90200002809DD012208214D
:102C20003046FEF765FB002204213046FEF760FBCC
:102C3000B4F90200002809DA002208213046FEF724
:102C400057FB012204213046FEF752FB6088002822
:102C50000BD1012208213046FEF74AFB3046BDE881
:102C6000704001220421FEF743BB70BD2400002008
:102C7000003D0008AA3D01000008014010B50C21EC
:102C80000448FFF7E7FABDE8104008210148FFF7C4
:102C9000E1BA00003C010020F0B50268164B174C69
:102CA000174D4FF08047984205D0B84203D0A0425C
:102CB00001D0A84203D122F070064A6832439842FC
:102CC00005D0B84203D0A04201D0A84203D122F4DB
:102CD0004074CA6822434C6922F080022243026099
:102CE0008A68C2620A688262984201D109690163F6
:102CF00001214161F0BD0000002C014000040040B2
:102D00000008004010B501F01F030121046A99403A
:102D10008C430462016A9A401143016210BD0000B5
:102D200030B5026A22F001020262026A43688469D5
:102D300024F073050C682C4322F002058A682A43AC
:102D40000A4DA8420BD122F00805CA6823F440734B
:102D50002A434D6922F004021D438B692B434360D3
:102D6000846149684163026230BD0000002C01406B
:102D700030B5026A22F010020262026A4368846976
:102D80000D6824F4E64444EA05248D6822F020020C
:102D900042EA05120B4DA8420ED1CD6822F0800206
:102DA00042EA05124D6923F4406343EA85038D69C5
:102DB00022F0400243EA85034360846149688163ED
:102DC000026230BD002C014030B5026A22F48072EC
:102DD0000262036A4268C46923F4007324F0730535
:102DE0000C682C438D6843EA05230C4DA8420ED194
:102DF000CD6823F4006343EA05234D6922F4405271
:102E000042EA05128D6923F4806342EA05124260AA
:102E1000C4614968C163036230BD0000002C0140F9
:102E200030B5026A22F480520262046A4268C369C1
:102E30000D6823F4E64343EA05238D6824F4005427
:102E400044EA0534064DA84204D14D6922F480427B
:102E500042EA85124260C36149680164046230BD80
:102E6000002C014070B5044600680169E26821F455
:102E70004051114301612169A06808436169084319
:102E80002168CA6841F20C639A430243CA60206811
:102E90004169A26921F44071114341611E492068D2
:102EA000884202D1FEF7DAFB01E0FEF7C7FB00EB38
:102EB000C00101EB0012606864218000B2FBF0F3F6
:102EC000B3FBF1F36FF018067343B2FBF0F5B2FBFE
:102ED000F0F605EB8305322303EB0515B5FBF1F5A1
:102EE000B6FBF1F605F0F00505EB0615B2FBF0F6C2
:102EF000B2FBF0F0B0FBF1F06FF01802504306EBBC
:102F0000800003EB0010B0FBF1F0216800F00F002F
:102F10002844886070BD0000003801402DE9F04170
:102F2000984617460E460446069D1DE0681C1BD0B9
:102F30002DB1FEF7E3F9A0EB0800A84214D92068F0
:102F4000C16821F4D071C1602068416921F001019C
:102F50004161202084F83D0084F83E00002084F880
:102F60003C000320BDE8F0812068006836EA0000DC
:102F700004D00020B842D9D00020F3E70120F9E7BF
:102F8000054800680168C943890603D44068C0B297
:102F900000F022BE7047000084010020FEE7000020
:102FA000012211030148FEF7A3B90000000C014003
:102FB00000224FF480510148FEF79AB9000C0140FD
:102FC00010B5FFF7F5FF052000F082FE00F072FE5D
:102FD0000446FFF7E5FF204610BD00002DE9104034
:102FE000FFF7EEFFC007FBD110BD10B5FFF7E0FF04
:102FF000062000F06DFEBDE81040FFF7D1BF0000D5
:1030000070B5264E642226483168FFF799FC25A04A
:10301000316800F0B1F8224C002528A0615D00F075
:10302000ABF86D1CEDB20A2DF7D325A000F0A4F883
:103030000A213068FDF735FE642219483168FFF730
:103040007FFC20A0316800F097F8002522A0615D88
:1030500000F092F86D1CEDB20A2DF7D318A000F025
:103060008BF81EA0316800F087F80C480A22001D7A
:10307000316800F03DF8642209483168FFF760FCD0
:1030800000250EA0615D00F077F86D1CEDB20A2DF1
:10309000F7D3BDE870400AA000F06EB81000002021
:1030A000C80100200D0A52656164206461746120CA
:1030B00066726F6D2025640D0A00000025632000F4
:1030C0000D0A0000457261736520646174612074AB
:1030D0006F2025640D0A0000256420005772697472
:1030E00065206461746120746F2025640D0A0000FE
:1030F0002DE9F0410746C8B2C0F580740E4615466A
:10310000A24200D814464FF4807822463146384611
:1031100000F00DF8A54208D0281B2744264485B2AC
:103120004446A542F1D82C46EFE7BDE8F08170B5E2
:1031300015460C460646FFF758FFFFF739FF0220F9
:1031400000F0C6FDC4F3074000F0C2FDC4F3072041
:1031500000F0BEFDE0B200F0BBFD002404E0305DF5
:1031600000F0B6FD641CA4B2AC42F8D3FFF718FF20
:10317000BDE87040FFF732BF0FB4054B10B503A98F
:10318000044A029800F0EAF810BC5DF814FB000055
:10319000453C0008300000200907090E002804DB28
:1031A00000F1E02080F80014704700F00F0000F1FB
:1031B000E02080F8141D704702E008C8121F08C103
:1031C000002AFAD170477047002001E001C1121FA8
:1031D000002AFBD1704700002DE9FF5F82B000217B
:1031E000DDE90430020DDDF840B0034318D044F6A9
:1031F0001050A2F2FF3242431514119801281FD03B
:10320000A5EB0B00401C5FEA000A4FF000064E4F92
:10321000DFF83891B046504615D5CAF1000413E0E6
:10322000119801244AA3012801D16FEA0B010298E9
:10323000119AC0E90031C0E9024206B0BDE8F09F32
:10324000CBF10000DFE704460021404A491842EB79
:103250000450CDE9001012E0E00707D032463B46AB
:1032600040464946FDF742F88046894632463B468D
:1032700010461946FDF73AF806460F466410002C32
:10328000EAD1DDE90401DDE90023BAF1000F06DA35
:10329000FDF72CF842464B46FDF728F805E0FDF710
:1032A00049FA42464B46FDF745FA04460E460022CF
:1032B000284BFDF7C7FA03D84FF0FF30014607E06F
:1032C0000022254B20463146FDF78DF9FDF7A1FA86
:1032D000102409E0002C0ADB0A220023FDF7B2F8D3
:1032E000039B30321A55641E50EA0102F2D1641C6D
:1032F000039AC4F111031444119A012A03D0012244
:1033000008430DD10AE0084304D000204FF0110B10
:10331000119072E7A3EB0B056D1E0DE05B4504DD1C
:103320004FF0000205F1010504E003DA4FF000025E
:10333000A5F10105002AECD002981199C0E90231EB
:10334000C0E9004579E70000000014400000F03FAC
:10335000300000000000F0430000E03F2DE9FF4F87
:1033600095B09B468946064600250FE2252877D171
:1033700000242746F84A0121059400E0044316F88A
:10338000013F203B01FA03F01042F7D130782A28A0
:1033900011D06FF02F033078A0F13002092A16D82F
:1033A000059A44F0020402EB820203EB420210444D
:1033B000761C0590EFE759F8042B0592002A03DAF2
:1033C000504244F40054059044F00204761C3078D6
:1033D0002E2816D116F8010F44F004042A280DD027
:1033E0006FF02F023078A0F13003092B09D807EBDA
:1033F000870302EB4303C718761CF3E759F8047BF5
:10340000761C30786C280FD006DC4C2817D0682842
:103410000DD06A2814D104E0742810D07A280FD176
:103420000DE044F400140AE044F4801401E044F494
:1034300040147278824202D104F58014761C761C06
:10344000307866280BD013DC582877D009DC0028A8
:1034500075D04528F6D04628F4D047281AD19DE1EA
:1034600018E0632835D0642879D0652812D195E119
:10347000702873D008DC6728F1D069286FD06E28D7
:103480000DD06F2806D1B5E073282CD0752875D0E3
:10349000782874D05A46179990476D1C75E1C4F38B
:1034A0000250022809D003280DD0D9F800100428B2
:1034B0000DD00D6009F1040967E1D9F80010EA1791
:1034C000C1E90052F6E7D9F800100D80F2E70D705F
:1034D000F0E719F8041B8DF8001000208DF80100AA
:1034E000EA46012003E059F804AB4FF0FF306107D2
:1034F0004FF0000102D40DE008F101018846B94205
:103500000FDA8045F8DB1AF808100029F4D108E03A
:1035100008F1010188468142FADB1AF808100029F7
:10352000F6D105985B46A0EB080721463846179A66
:1035300000F094FA284400EB080507E04DE029E18B
:103540000DE01AF8010B5A4617999047B8F1010897
:10355000F7D25B4621463846179A13E142E00A2229
:103560000092C4F302524FF0000A022A08D059F820
:1035700004CB032A4FEAEC710AD00DE029E02AE0DF
:1035800009F1070121F00702F2E802C1914609E0C2
:103590000FFA8CFC4FEAEC71042A03D14FFA8CFC31
:1035A0004FEAEC71002907DA0A460021DCF1000C31
:1035B00061EB02012D2202E0220504D52B228DF8B9
:1035C0000420012203E0E20701D02022F7E7904621
:1035D00059E00A2102E010220DE010214FF0000A0C
:1035E00000910BE010224FF0000A44F00404082779
:1035F000009203E008224FF0000A0092C4F3025246
:10360000022A05D059F804CB0021032A08D009E08A
:1036100009F1070121F00702F2E802C1914605E035
:103620001FFA8CFC042A01D10CF0FF0C4FF00008AB
:10363000220728D5702806D0009B83F0100353EA98
:103640000A0305D00EE040228DF80420012208E094
:103650005CEA010206D030228DF804208DF80500C6
:1036600002229046009B83F0080353EA0A030AD122
:103670005CEA010201D1620705D530228DF80420F1
:103680004FF001087F1E582804D034A003900EA8E4
:1036900002900DE036A0F9E753466046009AFCF729
:1036A000D1FE84460398825C0298401E029002700C
:1036B0005CEA0100F0D1029806A9081A00F1200A7C
:1036C000600702D524F4803400E00127574502DD6D
:1036D000A7EB0A0000E0002000EB0A01009005982B
:1036E0004144401A0590E00306D45B462146179AF0
:1036F000059800F0B3F90544002706E001A85A46F2
:10370000C05D179990476D1C7F1C4745F6DBE003B1
:103710000CD55B462146179A059800F09FF90544A1
:1037200004E030205A46179990476D1C0099481EB6
:1037300000900029F5DC08E0029802995A460078CA
:10374000491C0291179990476D1CBAF10001AAF12A
:10375000010AF1DC65E10000092801003031323353
:1037600034353637383961626364656600000000BD
:1037700030313233343536373839414243444546A7
:103780000000000000F058F90544761C307800284D
:103790007FF4ECAD19B02846BDE8F08F620700D485
:1037A000062709F1070222F0070CFCE80223E14694
:1037B00003F000485FEA080C02D00FF2702C0DE015
:1037C0005FEA045C02D50FF2682C07E05FEAC47C74
:1037D00002D00FF2602C01E0AFF2700C4FF0FF3816
:1037E00023F00043CDF850C065280CD006DC4528F6
:1037F00009D046281DD047283DD13DE0662818D085
:1038000067287ED138E00021112F01DB112000E074
:10381000781CCDE9000106A90EA8FFF7DDFCDDE963
:103820000F010E9A03910021009207F1010A049101
:103830004DE04FF000400097CDE9011006A90EA819
:10384000FFF7CAFCDDE90F0203920E9B11990022DB
:10385000DDF80CA00093049211B9791C00EB010A69
:10386000B7EB0A0004D4C0F1FF3007F1010A04905D
:10387000AAEB0700019044E0012F00DA01270021A4
:10388000112F01DD112000E03846CDE9000106A925
:103890000EA8FFF7A1FCDDE90F010E9A03910021AC
:1038A00004910092BA4621070CD40399514500DADD
:1038B0008A46BAF1010F05DD009AAAF10101515CB7
:1038C000302908D0B84202DA10F1040F06DA0121DB
:1038D000CDE9011015E0AAF10101E9E7002805DCB6
:1038E000049901440491AAEB000102E0411C5145F6
:1038F00000DD8A460499401A401C01904FF00040B8
:103900000290200704D40198504501DBCDF80480D3
:1039100000208DF84F0002980DF14F07B0F1004FD5
:1039200025D02B200E9002984FF0020800280CDAC8
:10393000404202902D200E9007E00A210298FCF7E9
:103940006BFD3031029007F8011DB8F10001A8F1BC
:103950000108F2DC02980028EFD1791E0E98087059
:10396000307800F0200040F0450007F8020D12A862
:10397000C01B00F107081498007800B1012000EB8B
:103980000A01019801EBE07105984144401A401E7C
:103990000590E00306D45B462146179A059800F08F
:1039A0005DF805441498007818B15A461799904765
:1039B0006D1CE00324D55B462146179A059800F05C
:1039C0004DF805441CE00498002807DBDDE90301FD
:1039D000884203DD0098405C179901E01799302078
:1039E0005A469047049805F10105401C049001983F
:1039F000401E019004D12E205A46179990476D1C05
:103A0000BAF10001AAF1010ADDDC05E017F8010BAB
:103A10005A46179990476D1CB8F10001A8F10108AA
:103A2000F4DC5B462146179A0598ABE62D000000B2
:103A30002B000000200000002DE9F0410446002585
:103A40001E461746880404D405E039462020B047B6
:103A50006D1C641EF9D52846BDE8F0812DE9F041C2
:103A6000044600251E469046C80301D5302700E0D5
:103A70002027880404D505E041463846B0476D1C30
:103A8000641EF9D52846BDE8F081000004480021F5
:103A9000012241708270017015210248FCF759BB68
:103AA0002A0000202C02002038B5144601F108023B
:103AB00000920B1D0A4609A1801CFCF755FBA04291
:103AC00004D1BDE8384008A0FFF756BB08A0FFF7B7
:103AD00053FBBDE83840FFF7D9BF00002825642C10
:103AE00025642C2564290000285F656E6429000088
:103AF000285F6572722900003EB5044640784D2863
:103B000026D006DC41281FD0432821D0482806D1E2
:103B10001AE050281AD0532816D0542818D01DA0C7
:103B2000FFF72AFBFFF7B2FF60784D282AD011DC9F
:103B3000412816D043281AD0482827D111E06946D9
:103B40002046FFF7B1FFEFE70222F8E70322F6E78E
:103B50000122F4E750280FD0532802D0542815D161
:103B600005E0DDE900120DA0FFF706FB0EE010A056
:103B70000099FFF701FB09E09DE80E0010A0FFF798
:103B8000FBFA03E00098C0B200F07FF8FFF77EFF79
:103B90003EBD0000285F6572722900000D0A706149
:103BA000726D3A2025642C2025640D0A0000000067
:103BB0000D0A7061726D3A2025640D0A0000000044
:103BC0000D0A7061726D3A2025642C2025642C202A
:103BD00025640D0A0000000010B5124C104A302870
:103BE000617802D0012915D003E011B910700121CC
:103BF0006170C9B2022911D10A490246891C0848DC
:103C000000F012F82078002808D0BDE810400448E1
:103C1000FFF772BF507002216170EDE710BD000028
:103C20002C0200202A0000200B78292AC254087890
:103C300000F1010002D108700149012008707047AD
:103C40002A00002013B54FF6FF730122694602488F
:103C5000FEF7C0FB00981CBD8401002010B5FDF7E5
:103C60005BFBFEF747FFFEF7FBFCFEF7B7FCFEF73A
:103C7000DBFCFEF783FDFEF7A3FDFEF7C1FDFEF7BB
:103C8000FDFD00F00EF8002010BD28B1012805D080
:103C9000022805D1FEF71EBEFFF7B2B9FEF768BCD9
:103CA00070470520FDF7B6FBFEF7EEFBFEF710FEB2
:103CB000FEE7000008B54FF0FF33012269460348D4
:103CC000FDF75CFFBDF80000C0B208BDE4000020B5
:103CD00001B54FF0FF33012269460248FDF7FBFFB3
:103CE00008BD0000E400002000000000000000000B
:103CF0000102030406070809000000000102030492
:103D00000000190032004B0065007E009700B000F3
:103D1000C900E200FB0014012D0146015F0178019A
:103D20009101AA01C301DC01F5010E022702400244
:103D3000590272028B02A302BC02D502EE020603F4
:103D40001F0338035003690381039A03B203CB03B3
:103D5000E303FC0314042C0444045D0475048D0483
:103D6000A504BD04D504ED0405051D0534054C0569
:103D700064057C059305AB05C205DA05F105080667
:103D80001F0637064E0665067C069306AA06C10680
:103D9000D706EE0605071B07320748075E077507BB
:103DA0008B07A107B707CD07E307F9070E0824081B
:103DB0003A084F0865087A088F08A508BA08CF089E
:103DC000E408F8080D09220937094B095F0974094D
:103DD00088099C09B009C409D809EC09FF09130A2C
:103DE000260A3A0A4D0A600A730A860A990AAC0A38
:103DF000BF0AD10AE40AF60A080B1B0B2D0B3E0B77
:103E0000500B620B740B850B970BA80BB90BCA0BED
:103E1000DB0BEC0BFC0B0D0C1E0C2E0C3E0C4E0C9D
:103E20005E0C6E0C7E0C8E0C9D0CAC0CBC0CCB0C8A
:103E3000DA0CE90CF80C060D150D230D320D400DB2
:103E40004E0D5C0D690D770D850D920D9F0DAC0D1E
:103E5000B90DC60DD30DDF0DEC0DF80D040E100ECF
:103E60001C0E280E340E3F0E4B0E560E610E6C0EBD
:103E7000770E810E8C0E960EA10EAB0EB50EBF0EF8
:103E8000C80ED20EDB0EE40EEE0EF70EFF0E080F7C
:103E9000110F190F210F290F310F390F410F480F43
:103EA000500F570F5E0F650F6C0F720F790F7F0F5A
:103EB000850F8B0F910F970F9C0FA20FA70FAC0FC1
:103EC000B10FB60FBB0FBF0FC40FC80FCC0FD00F71
:103ED000D40FD70FDB0FDE0FE10FE40FE70FEA0F70
:103EE000EC0FEF0FF10FF30FF50FF70FF80FFA0FBD
:103EF000FB0FFC0FFD0FFE0FFF0FFF0F0010001058
:103F0000001000100010FF0FFF0FFE0FFD0FFC0F41
:103F1000FB0FFA0FF80FF70FF50FF30FF10FEF0F7D
:103F2000EC0FEA0FE70FE40FE10FDE0FDB0FD70F07
:103F3000D40FD00FCC0FC80FC40FBF0FBB0FB60FDD
:103F4000B10FAC0FA70FA20F9C0F970F910F8B0F04
:103F5000850F7F0F790F720F6C0F650F5E0F570F74
:103F6000500F480F410F390F310F290F210F190F33
:103F7000110F080FFF0EF70EEE0EE40EDB0ED20E41
:103F8000C80EBF0EB50EAB0EA10E960E8C0E810E96
:103F9000770E6C0E610E560E4B0E3F0E340E280E31
:103FA0001C0E100E040EF80DEC0DDF0DD30DC60D1A
:103FB000B90DAC0D9F0D920D850D770D690D5C0D42
:103FC0004E0D400D320D230D150D060DF80CE90CAC
:103FD000DA0CCB0CBC0CAC0C9D0C8E0C7E0C6E0C5D
:103FE0005E0C4E0C3E0C2E0C1E0C0D0CFC0BEC0B48
:103FF000DB0BCA0BB90BA80B970B850B740B620B71
:10400000500B3E0B2D0B1B0B080BF60AE40AD10AD2
:10401000BF0AAC0A990A860A730A600A4D0A3A0A6C
:10402000260A130AFF09EC09D809C409B0099C093A
:10403000880974095F094B09370922090D09F80835
:10404000E408CF08BA08A5088F087A0865084F0861
:104050003A0824080E08F907E307CD07B707A107B8
:104060008B0775075E07480732071B070507EE0633
:10407000D706C106AA0693067C0665064E063706D5
:104080001F060806F105DA05C205AB0593057C0598
:1040900064054C0534051D050505ED04D504BD0476
:1040A000A5048D0475045D0444042C041404FC036D
:1040B000E303CB03B2039A0381036903500338037C
:1040C0001F030603EE02D502BC02A3028B0272029A
:1040D0005902400227020E02F501DC01C301AA01C8
:1040E000910178015F0146012D011401FB00E200FE
:1040F000C900B00097007E0065004B003200190037
:104100000000E7FFCEFFB5FF9BFF82FF69FF50FF76
:1041100037FF1EFF05FFECFED3FEBAFEA1FE88FEB0
:104120006FFE56FE3DFE24FE0BFEF2FDD9FDC0FDE6
:10413000A7FD8EFD75FD5DFD44FD2BFD12FDFAFC16
:10414000E1FCC8FCB0FC97FC7FFC66FC4EFC35FC37
:104150001DFC04FCECFBD4FBBCFBA3FB8BFB73FB47
:104160005BFB43FB2BFB13FBFBFAE3FACCFAB4FA41
:104170009CFA84FA6DFA55FA3EFA26FA0FFAF8F923
:10418000E1F9C9F9B2F99BF984F96DF956F93FF9EA
:1041900029F912F9FBF8E5F8CEF8B8F8A2F88BF88F
:1041A00075F85FF849F833F81DF807F8F2F7DCF70F
:1041B000C6F7B1F79BF786F771F75BF746F731F76C
:1041C0001CF708F7F3F6DEF6C9F6B5F6A1F68CF69D
:1041D00078F664F650F63CF628F614F601F6EDF59E
:1041E000DAF5C6F5B3F5A0F58DF57AF567F554F572
:1041F00041F52FF51CF50AF5F8F4E5F4D3F4C2F413
:10420000B0F49EF48CF47BF469F458F447F436F47B
:1042100025F414F404F4F3F3E2F3D2F3C2F3B2F3AB
:10422000A2F392F382F372F363F354F344F335F39E
:1042300026F317F308F3FAF2EBF2DDF2CEF2C0F256
:10424000B2F2A4F297F289F27BF26EF261F254F2CA
:1042500047F23AF22DF221F214F208F2FCF1F0F1F9
:10426000E4F1D8F1CCF1C1F1B5F1AAF19FF194F1EB
:1042700089F17FF174F16AF15FF155F14BF141F190
:1042800038F12EF125F11CF112F109F101F1F8F0EC
:10429000EFF0E7F0DFF0D7F0CFF0C7F0BFF0B8F005
:1042A000B0F0A9F0A2F09BF094F08EF087F081F0CE
:1042B0007BF075F06FF069F064F05EF059F054F047
:1042C0004FF04AF045F041F03CF038F034F030F077
:1042D0002CF029F025F022F01FF01CF019F016F058
:1042E00014F011F00FF00DF00BF009F008F006F0EB
:1042F00005F004F003F002F001F001F000F000F02E
:1043000000F000F000F001F001F002F003F004F022
:1043100005F006F008F009F00BF00DF00FF011F0C9
:1043200014F016F019F01CF01FF022F025F029F01F
:104330002CF030F034F038F03CF041F045F04AF029
:104340004FF054F059F05EF064F069F06FF075F0E2
:104350007BF081F087F08EF094F09BF0A2F0A9F052
:10436000B0F0B8F0BFF0C7F0CFF0D7F0DFF0E7F073
:10437000EFF0F8F001F109F112F11CF125F12EF145
:1043800038F141F14BF155F15FF16AF174F17FF1D0
:1043900089F194F19FF1AAF1B5F1C1F1CCF1D8F115
:1043A000E4F1F0F1FCF108F214F221F22DF23AF20C
:1043B00047F254F261F26EF27BF289F297F2A4F2C4
:1043C000B2F2C0F2CEF2DDF2EBF2FAF208F317F33A
:1043D00026F335F344F354F363F372F382F392F369
:1043E000A2F3B2F3C2F3D2F3E2F3F3F304F414F45E
:1043F00025F436F447F458F469F47BF48CF49EF415
:10440000B0F4C2F4D3F4E5F4F8F40AF51CF52FF592
:1044100041F554F567F57AF58DF5A0F5B3F5C6F5D8
:10442000DAF5EDF501F614F628F63CF650F664F6EA
:1044300078F68CF6A1F6B5F6C9F6DEF6F3F608F7CF
:104440001CF731F746F75BF771F786F79BF7B1F783
:10445000C6F7DCF7F2F707F81DF833F849F85FF80C
:1044600075F88BF8A2F8B8F8CEF8E5F8FBF812F971
:1044700029F93FF956F96DF984F99BF9B2F9C9F9AF
:10448000E1F9F8F90FFA26FA3EFA55FA6DFA84FACC
:104490009CFAB4FACCFAE3FAFBFA13FB2BFB43FBCE
:1044A0005BFB73FB8BFBA3FBBCFBD4FBECFB04FCB7
:1044B0001DFC35FC4EFC66FC7FFC97FCB0FCC8FC88
:1044C000E1FCFAFC12FD2BFD44FD5DFD75FD8EFD4A
:1044D000A7FDC0FDD9FDF2FD0BFE24FE3DFE56FEFC
:1044E0006FFE88FEA1FEBAFED3FEECFE05FF1EFFA6
:1044F00037FF50FF69FF82FF9BFFB5FFCEFFE7FF4D
:104500000000DDDDDDDDDCBBBBDDDDDDDDDDDDDDDA
:10451000DDDD9888888888888888777777777788B6
:1045200088888555555666666666666666666668F8
:1045300088888333333222222222222222222228F6
:10454000888D000064450008000000203400000051
:10455000B831000898450008340000202406000007
:10456000C831000801000000100000000000000039
:104570000024F400FB0F000030313233343536377D
:1045800038410000000000000000000000000000B2
:08459000010000000000000022
:04000005080000ED02
:00000001FF
